{
  "_format": "hh-sol-artifact-1",
  "contractName": "BasicNFT",
  "sourceName": "contracts/BasicNFT.sol",
  "abi": [
    {
      "inputs": [],
      "stateMutability": "nonpayable",
      "type": "constructor"
    },
    {
      "anonymous": false,
      "inputs": [
        {
          "indexed": true,
          "internalType": "address",
          "name": "owner",
          "type": "address"
        },
        {
          "indexed": true,
          "internalType": "address",
          "name": "approved",
          "type": "address"
        },
        {
          "indexed": true,
          "internalType": "uint256",
          "name": "tokenId",
          "type": "uint256"
        }
      ],
      "name": "Approval",
      "type": "event"
    },
    {
      "anonymous": false,
      "inputs": [
        {
          "indexed": true,
          "internalType": "address",
          "name": "owner",
          "type": "address"
        },
        {
          "indexed": true,
          "internalType": "address",
          "name": "operator",
          "type": "address"
        },
        {
          "indexed": false,
          "internalType": "bool",
          "name": "approved",
          "type": "bool"
        }
      ],
      "name": "ApprovalForAll",
      "type": "event"
    },
    {
      "anonymous": false,
      "inputs": [
        {
          "indexed": true,
          "internalType": "address",
          "name": "from",
          "type": "address"
        },
        {
          "indexed": true,
          "internalType": "address",
          "name": "to",
          "type": "address"
        },
        {
          "indexed": true,
          "internalType": "uint256",
          "name": "tokenId",
          "type": "uint256"
        }
      ],
      "name": "Transfer",
      "type": "event"
    },
    {
      "inputs": [],
      "name": "TOKEN_URI",
      "outputs": [
        {
          "internalType": "string",
          "name": "",
          "type": "string"
        }
      ],
      "stateMutability": "view",
      "type": "function"
    },
    {
      "inputs": [
        {
          "internalType": "address",
          "name": "to",
          "type": "address"
        },
        {
          "internalType": "uint256",
          "name": "tokenId",
          "type": "uint256"
        }
      ],
      "name": "approve",
      "outputs": [],
      "stateMutability": "nonpayable",
      "type": "function"
    },
    {
      "inputs": [
        {
          "internalType": "address",
          "name": "owner",
          "type": "address"
        }
      ],
      "name": "balanceOf",
      "outputs": [
        {
          "internalType": "uint256",
          "name": "",
          "type": "uint256"
        }
      ],
      "stateMutability": "view",
      "type": "function"
    },
    {
      "inputs": [
        {
          "internalType": "uint256",
          "name": "tokenId",
          "type": "uint256"
        }
      ],
      "name": "getApproved",
      "outputs": [
        {
          "internalType": "address",
          "name": "",
          "type": "address"
        }
      ],
      "stateMutability": "view",
      "type": "function"
    },
    {
      "inputs": [],
      "name": "getTokenCounter",
      "outputs": [
        {
          "internalType": "uint256",
          "name": "",
          "type": "uint256"
        }
      ],
      "stateMutability": "view",
      "type": "function"
    },
    {
      "inputs": [
        {
          "internalType": "address",
          "name": "owner",
          "type": "address"
        },
        {
          "internalType": "address",
          "name": "operator",
          "type": "address"
        }
      ],
      "name": "isApprovedForAll",
      "outputs": [
        {
          "internalType": "bool",
          "name": "",
          "type": "bool"
        }
      ],
      "stateMutability": "view",
      "type": "function"
    },
    {
      "inputs": [],
      "name": "mintNFT",
      "outputs": [
        {
          "internalType": "uint256",
          "name": "",
          "type": "uint256"
        }
      ],
      "stateMutability": "nonpayable",
      "type": "function"
    },
    {
      "inputs": [],
      "name": "name",
      "outputs": [
        {
          "internalType": "string",
          "name": "",
          "type": "string"
        }
      ],
      "stateMutability": "view",
      "type": "function"
    },
    {
      "inputs": [
        {
          "internalType": "uint256",
          "name": "tokenId",
          "type": "uint256"
        }
      ],
      "name": "ownerOf",
      "outputs": [
        {
          "internalType": "address",
          "name": "",
          "type": "address"
        }
      ],
      "stateMutability": "view",
      "type": "function"
    },
    {
      "inputs": [
        {
          "internalType": "address",
          "name": "from",
          "type": "address"
        },
        {
          "internalType": "address",
          "name": "to",
          "type": "address"
        },
        {
          "internalType": "uint256",
          "name": "tokenId",
          "type": "uint256"
        }
      ],
      "name": "safeTransferFrom",
      "outputs": [],
      "stateMutability": "nonpayable",
      "type": "function"
    },
    {
      "inputs": [
        {
          "internalType": "address",
          "name": "from",
          "type": "address"
        },
        {
          "internalType": "address",
          "name": "to",
          "type": "address"
        },
        {
          "internalType": "uint256",
          "name": "tokenId",
          "type": "uint256"
        },
        {
          "internalType": "bytes",
          "name": "data",
          "type": "bytes"
        }
      ],
      "name": "safeTransferFrom",
      "outputs": [],
      "stateMutability": "nonpayable",
      "type": "function"
    },
    {
      "inputs": [
        {
          "internalType": "address",
          "name": "operator",
          "type": "address"
        },
        {
          "internalType": "bool",
          "name": "approved",
          "type": "bool"
        }
      ],
      "name": "setApprovalForAll",
      "outputs": [],
      "stateMutability": "nonpayable",
      "type": "function"
    },
    {
      "inputs": [
        {
          "internalType": "bytes4",
          "name": "interfaceId",
          "type": "bytes4"
        }
      ],
      "name": "supportsInterface",
      "outputs": [
        {
          "internalType": "bool",
          "name": "",
          "type": "bool"
        }
      ],
      "stateMutability": "view",
      "type": "function"
    },
    {
      "inputs": [],
      "name": "symbol",
      "outputs": [
        {
          "internalType": "string",
          "name": "",
          "type": "string"
        }
      ],
      "stateMutability": "view",
      "type": "function"
    },
    {
      "inputs": [
        {
          "internalType": "uint256",
          "name": "",
          "type": "uint256"
        }
      ],
      "name": "tokenURI",
      "outputs": [
        {
          "internalType": "string",
          "name": "",
          "type": "string"
        }
      ],
      "stateMutability": "view",
      "type": "function"
    },
    {
      "inputs": [
        {
          "internalType": "address",
          "name": "from",
          "type": "address"
        },
        {
          "internalType": "address",
          "name": "to",
          "type": "address"
        },
        {
          "internalType": "uint256",
          "name": "tokenId",
          "type": "uint256"
        }
      ],
      "name": "transferFrom",
      "outputs": [],
      "stateMutability": "nonpayable",
      "type": "function"
    }
  ],
  "bytecode": "0x60806040523480156200001157600080fd5b506040518060400160405280600581526020017f446f6769650000000000000000000000000000000000000000000000000000008152506040518060400160405280600381526020017f444f470000000000000000000000000000000000000000000000000000000000815250816000908051906020019062000096929190620000c0565b508060019080519060200190620000af929190620000c0565b5050506000600681905550620001d5565b828054620000ce906200019f565b90600052602060002090601f016020900481019282620000f257600085556200013e565b82601f106200010d57805160ff19168380011785556200013e565b828001600101855582156200013e579182015b828111156200013d57825182559160200191906001019062000120565b5b5090506200014d919062000151565b5090565b5b808211156200016c57600081600090555060010162000152565b5090565b7f4e487b7100000000000000000000000000000000000000000000000000000000600052602260045260246000fd5b60006002820490506001821680620001b857607f821691505b60208210811415620001cf57620001ce62000170565b5b50919050565b6124f980620001e56000396000f3fe608060405234801561001057600080fd5b50600436106101005760003560e01c80636e02007d11610097578063a22cb46511610066578063a22cb465146102af578063b88d4fde146102cb578063c87b56dd146102e7578063e985e9c51461031757610100565b80636e02007d1461022557806370a082311461024357806378ce90351461027357806395d89b411461029157610100565b806314f710fe116100d357806314f710fe1461019f57806323b872dd146101bd57806342842e0e146101d95780636352211e146101f557610100565b806301ffc9a71461010557806306fdde0314610135578063081812fc14610153578063095ea7b314610183575b600080fd5b61011f600480360381019061011a9190611721565b610347565b60405161012c9190611769565b60405180910390f35b61013d610429565b60405161014a919061181d565b60405180910390f35b61016d60048036038101906101689190611875565b6104bb565b60405161017a91906118e3565b60405180910390f35b61019d6004803603810190610198919061192a565b610501565b005b6101a7610619565b6040516101b49190611979565b60405180910390f35b6101d760048036038101906101d29190611994565b610647565b005b6101f360048036038101906101ee9190611994565b6106a7565b005b61020f600480360381019061020a9190611875565b6106c7565b60405161021c91906118e3565b60405180910390f35b61022d61074e565b60405161023a9190611979565b60405180910390f35b61025d600480360381019061025891906119e7565b610758565b60405161026a9190611979565b60405180910390f35b61027b610810565b604051610288919061181d565b60405180910390f35b61029961082c565b6040516102a6919061181d565b60405180910390f35b6102c960048036038101906102c49190611a40565b6108be565b005b6102e560048036038101906102e09190611bb5565b6108d4565b005b61030160048036038101906102fc9190611875565b610936565b60405161030e919061181d565b60405180910390f35b610331600480360381019061032c9190611c38565b610958565b60405161033e9190611769565b60405180910390f35b60007f80ac58cd000000000000000000000000000000000000000000000000000000007bffffffffffffffffffffffffffffffffffffffffffffffffffffffff1916827bffffffffffffffffffffffffffffffffffffffffffffffffffffffff1916148061041257507f5b5e139f000000000000000000000000000000000000000000000000000000007bffffffffffffffffffffffffffffffffffffffffffffffffffffffff1916827bffffffffffffffffffffffffffffffffffffffffffffffffffffffff1916145b806104225750610421826109ec565b5b9050919050565b60606000805461043890611ca7565b80601f016020809104026020016040519081016040528092919081815260200182805461046490611ca7565b80156104b15780601f10610486576101008083540402835291602001916104b1565b820191906000526020600020905b81548152906001019060200180831161049457829003601f168201915b5050505050905090565b60006104c682610a56565b6004600083815260200190815260200160002060009054906101000a900473ffffffffffffffffffffffffffffffffffffffff169050919050565b600061050c826106c7565b90508073ffffffffffffffffffffffffffffffffffffffff168373ffffffffffffffffffffffffffffffffffffffff16141561057d576040517f08c379a000000000000000000000000000000000000000000000000000000000815260040161057490611d4b565b60405180910390fd5b8073ffffffffffffffffffffffffffffffffffffffff1661059c610aa1565b73ffffffffffffffffffffffffffffffffffffffff1614806105cb57506105ca816105c5610aa1565b610958565b5b61060a576040517f08c379a000000000000000000000000000000000000000000000000000000000815260040161060190611ddd565b60405180910390fd5b6106148383610aa9565b505050565b600061062733600654610b62565b6006600081548092919061063a90611e2c565b9190505550600654905090565b610658610652610aa1565b82610b80565b610697576040517f08c379a000000000000000000000000000000000000000000000000000000000815260040161068e90611ee7565b60405180910390fd5b6106a2838383610c15565b505050565b6106c2838383604051806020016040528060008152506108d4565b505050565b6000806106d383610f0f565b9050600073ffffffffffffffffffffffffffffffffffffffff168173ffffffffffffffffffffffffffffffffffffffff161415610745576040517f08c379a000000000000000000000000000000000000000000000000000000000815260040161073c90611f53565b60405180910390fd5b80915050919050565b6000600654905090565b60008073ffffffffffffffffffffffffffffffffffffffff168273ffffffffffffffffffffffffffffffffffffffff1614156107c9576040517f08c379a00000000000000000000000000000000000000000000000000000000081526004016107c090611fe5565b60405180910390fd5b600360008373ffffffffffffffffffffffffffffffffffffffff1673ffffffffffffffffffffffffffffffffffffffff168152602001908152602001600020549050919050565b60405180608001604052806057815260200161246d6057913981565b60606001805461083b90611ca7565b80601f016020809104026020016040519081016040528092919081815260200182805461086790611ca7565b80156108b45780601f10610889576101008083540402835291602001916108b4565b820191906000526020600020905b81548152906001019060200180831161089757829003601f168201915b5050505050905090565b6108d06108c9610aa1565b8383610f4c565b5050565b6108e56108df610aa1565b83610b80565b610924576040517f08c379a000000000000000000000000000000000000000000000000000000000815260040161091b90611ee7565b60405180910390fd5b610930848484846110b9565b50505050565b606060405180608001604052806057815260200161246d605791399050919050565b6000600560008473ffffffffffffffffffffffffffffffffffffffff1673ffffffffffffffffffffffffffffffffffffffff16815260200190815260200160002060008373ffffffffffffffffffffffffffffffffffffffff1673ffffffffffffffffffffffffffffffffffffffff16815260200190815260200160002060009054906101000a900460ff16905092915050565b60007f01ffc9a7000000000000000000000000000000000000000000000000000000007bffffffffffffffffffffffffffffffffffffffffffffffffffffffff1916827bffffffffffffffffffffffffffffffffffffffffffffffffffffffff1916149050919050565b610a5f81611115565b610a9e576040517f08c379a0000000000000000000000000000000000000000000000000000000008152600401610a9590611f53565b60405180910390fd5b50565b600033905090565b816004600083815260200190815260200160002060006101000a81548173ffffffffffffffffffffffffffffffffffffffff021916908373ffffffffffffffffffffffffffffffffffffffff160217905550808273ffffffffffffffffffffffffffffffffffffffff16610b1c836106c7565b73ffffffffffffffffffffffffffffffffffffffff167f8c5be1e5ebec7d5bd14f71427d1e84f3dd0314c0f7b2291e5b200ac8c7c3b92560405160405180910390a45050565b610b7c828260405180602001604052806000815250611156565b5050565b600080610b8c836106c7565b90508073ffffffffffffffffffffffffffffffffffffffff168473ffffffffffffffffffffffffffffffffffffffff161480610bce5750610bcd8185610958565b5b80610c0c57508373ffffffffffffffffffffffffffffffffffffffff16610bf4846104bb565b73ffffffffffffffffffffffffffffffffffffffff16145b91505092915050565b8273ffffffffffffffffffffffffffffffffffffffff16610c35826106c7565b73ffffffffffffffffffffffffffffffffffffffff1614610c8b576040517f08c379a0000000000000000000000000000000000000000000000000000000008152600401610c8290612077565b60405180910390fd5b600073ffffffffffffffffffffffffffffffffffffffff168273ffffffffffffffffffffffffffffffffffffffff161415610cfb576040517f08c379a0000000000000000000000000000000000000000000000000000000008152600401610cf290612109565b60405180910390fd5b610d0883838360016111b1565b8273ffffffffffffffffffffffffffffffffffffffff16610d28826106c7565b73ffffffffffffffffffffffffffffffffffffffff1614610d7e576040517f08c379a0000000000000000000000000000000000000000000000000000000008152600401610d7590612077565b60405180910390fd5b6004600082815260200190815260200160002060006101000a81549073ffffffffffffffffffffffffffffffffffffffff02191690556001600360008573ffffffffffffffffffffffffffffffffffffffff1673ffffffffffffffffffffffffffffffffffffffff168152602001908152602001600020600082825403925050819055506001600360008473ffffffffffffffffffffffffffffffffffffffff1673ffffffffffffffffffffffffffffffffffffffff16815260200190815260200160002060008282540192505081905550816002600083815260200190815260200160002060006101000a81548173ffffffffffffffffffffffffffffffffffffffff021916908373ffffffffffffffffffffffffffffffffffffffff160217905550808273ffffffffffffffffffffffffffffffffffffffff168473ffffffffffffffffffffffffffffffffffffffff167fddf252ad1be2c89b69c2b068fc378daa952ba7f163c4a11628f55a4df523b3ef60405160405180910390a4610f0a83838360016112d7565b505050565b60006002600083815260200190815260200160002060009054906101000a900473ffffffffffffffffffffffffffffffffffffffff169050919050565b8173ffffffffffffffffffffffffffffffffffffffff168373ffffffffffffffffffffffffffffffffffffffff161415610fbb576040517f08c379a0000000000000000000000000000000000000000000000000000000008152600401610fb290612175565b60405180910390fd5b80600560008573ffffffffffffffffffffffffffffffffffffffff1673ffffffffffffffffffffffffffffffffffffffff16815260200190815260200160002060008473ffffffffffffffffffffffffffffffffffffffff1673ffffffffffffffffffffffffffffffffffffffff16815260200190815260200160002060006101000a81548160ff0219169083151502179055508173ffffffffffffffffffffffffffffffffffffffff168373ffffffffffffffffffffffffffffffffffffffff167f17307eab39ab6107e8899845ad3d59bd9653f200f220920489ca2b5937696c31836040516110ac9190611769565b60405180910390a3505050565b6110c4848484610c15565b6110d0848484846112dd565b61110f576040517f08c379a000000000000000000000000000000000000000000000000000000000815260040161110690612207565b60405180910390fd5b50505050565b60008073ffffffffffffffffffffffffffffffffffffffff1661113783610f0f565b73ffffffffffffffffffffffffffffffffffffffff1614159050919050565b6111608383611474565b61116d60008484846112dd565b6111ac576040517f08c379a00000000000000000000000000000000000000000000000000000000081526004016111a390612207565b60405180910390fd5b505050565b60018111156112d157600073ffffffffffffffffffffffffffffffffffffffff168473ffffffffffffffffffffffffffffffffffffffff16146112455780600360008673ffffffffffffffffffffffffffffffffffffffff1673ffffffffffffffffffffffffffffffffffffffff168152602001908152602001600020600082825461123d9190612227565b925050819055505b600073ffffffffffffffffffffffffffffffffffffffff168373ffffffffffffffffffffffffffffffffffffffff16146112d05780600360008573ffffffffffffffffffffffffffffffffffffffff1673ffffffffffffffffffffffffffffffffffffffff16815260200190815260200160002060008282546112c8919061225b565b925050819055505b5b50505050565b50505050565b60006112fe8473ffffffffffffffffffffffffffffffffffffffff16611692565b15611467578373ffffffffffffffffffffffffffffffffffffffff1663150b7a02611327610aa1565b8786866040518563ffffffff1660e01b81526004016113499493929190612306565b602060405180830381600087803b15801561136357600080fd5b505af192505050801561139457506040513d601f19601f820116820180604052508101906113919190612367565b60015b611417573d80600081146113c4576040519150601f19603f3d011682016040523d82523d6000602084013e6113c9565b606091505b5060008151141561140f576040517f08c379a000000000000000000000000000000000000000000000000000000000815260040161140690612207565b60405180910390fd5b805181602001fd5b63150b7a0260e01b7bffffffffffffffffffffffffffffffffffffffffffffffffffffffff1916817bffffffffffffffffffffffffffffffffffffffffffffffffffffffff19161491505061146c565b600190505b949350505050565b600073ffffffffffffffffffffffffffffffffffffffff168273ffffffffffffffffffffffffffffffffffffffff1614156114e4576040517f08c379a00000000000000000000000000000000000000000000000000000000081526004016114db906123e0565b60405180910390fd5b6114ed81611115565b1561152d576040517f08c379a00000000000000000000000000000000000000000000000000000000081526004016115249061244c565b60405180910390fd5b61153b6000838360016111b1565b61154481611115565b15611584576040517f08c379a000000000000000000000000000000000000000000000000000000000815260040161157b9061244c565b60405180910390fd5b6001600360008473ffffffffffffffffffffffffffffffffffffffff1673ffffffffffffffffffffffffffffffffffffffff16815260200190815260200160002060008282540192505081905550816002600083815260200190815260200160002060006101000a81548173ffffffffffffffffffffffffffffffffffffffff021916908373ffffffffffffffffffffffffffffffffffffffff160217905550808273ffffffffffffffffffffffffffffffffffffffff16600073ffffffffffffffffffffffffffffffffffffffff167fddf252ad1be2c89b69c2b068fc378daa952ba7f163c4a11628f55a4df523b3ef60405160405180910390a461168e6000838360016112d7565b5050565b6000808273ffffffffffffffffffffffffffffffffffffffff163b119050919050565b6000604051905090565b600080fd5b600080fd5b60007fffffffff0000000000000000000000000000000000000000000000000000000082169050919050565b6116fe816116c9565b811461170957600080fd5b50565b60008135905061171b816116f5565b92915050565b600060208284031215611737576117366116bf565b5b60006117458482850161170c565b91505092915050565b60008115159050919050565b6117638161174e565b82525050565b600060208201905061177e600083018461175a565b92915050565b600081519050919050565b600082825260208201905092915050565b60005b838110156117be5780820151818401526020810190506117a3565b838111156117cd576000848401525b50505050565b6000601f19601f8301169050919050565b60006117ef82611784565b6117f9818561178f565b93506118098185602086016117a0565b611812816117d3565b840191505092915050565b6000602082019050818103600083015261183781846117e4565b905092915050565b6000819050919050565b6118528161183f565b811461185d57600080fd5b50565b60008135905061186f81611849565b92915050565b60006020828403121561188b5761188a6116bf565b5b600061189984828501611860565b91505092915050565b600073ffffffffffffffffffffffffffffffffffffffff82169050919050565b60006118cd826118a2565b9050919050565b6118dd816118c2565b82525050565b60006020820190506118f860008301846118d4565b92915050565b611907816118c2565b811461191257600080fd5b50565b600081359050611924816118fe565b92915050565b60008060408385031215611941576119406116bf565b5b600061194f85828601611915565b925050602061196085828601611860565b9150509250929050565b6119738161183f565b82525050565b600060208201905061198e600083018461196a565b92915050565b6000806000606084860312156119ad576119ac6116bf565b5b60006119bb86828701611915565b93505060206119cc86828701611915565b92505060406119dd86828701611860565b9150509250925092565b6000602082840312156119fd576119fc6116bf565b5b6000611a0b84828501611915565b91505092915050565b611a1d8161174e565b8114611a2857600080fd5b50565b600081359050611a3a81611a14565b92915050565b60008060408385031215611a5757611a566116bf565b5b6000611a6585828601611915565b9250506020611a7685828601611a2b565b9150509250929050565b600080fd5b600080fd5b7f4e487b7100000000000000000000000000000000000000000000000000000000600052604160045260246000fd5b611ac2826117d3565b810181811067ffffffffffffffff82111715611ae157611ae0611a8a565b5b80604052505050565b6000611af46116b5565b9050611b008282611ab9565b919050565b600067ffffffffffffffff821115611b2057611b1f611a8a565b5b611b29826117d3565b9050602081019050919050565b82818337600083830152505050565b6000611b58611b5384611b05565b611aea565b905082815260208101848484011115611b7457611b73611a85565b5b611b7f848285611b36565b509392505050565b600082601f830112611b9c57611b9b611a80565b5b8135611bac848260208601611b45565b91505092915050565b60008060008060808587031215611bcf57611bce6116bf565b5b6000611bdd87828801611915565b9450506020611bee87828801611915565b9350506040611bff87828801611860565b925050606085013567ffffffffffffffff811115611c2057611c1f6116c4565b5b611c2c87828801611b87565b91505092959194509250565b60008060408385031215611c4f57611c4e6116bf565b5b6000611c5d85828601611915565b9250506020611c6e85828601611915565b9150509250929050565b7f4e487b7100000000000000000000000000000000000000000000000000000000600052602260045260246000fd5b60006002820490506001821680611cbf57607f821691505b60208210811415611cd357611cd2611c78565b5b50919050565b7f4552433732313a20617070726f76616c20746f2063757272656e74206f776e6560008201527f7200000000000000000000000000000000000000000000000000000000000000602082015250565b6000611d3560218361178f565b9150611d4082611cd9565b604082019050919050565b60006020820190508181036000830152611d6481611d28565b9050919050565b7f4552433732313a20617070726f76652063616c6c6572206973206e6f7420746f60008201527f6b656e206f776e6572206f7220617070726f76656420666f7220616c6c000000602082015250565b6000611dc7603d8361178f565b9150611dd282611d6b565b604082019050919050565b60006020820190508181036000830152611df681611dba565b9050919050565b7f4e487b7100000000000000000000000000000000000000000000000000000000600052601160045260246000fd5b6000611e378261183f565b91507fffffffffffffffffffffffffffffffffffffffffffffffffffffffffffffffff821415611e6a57611e69611dfd565b5b600182019050919050565b7f4552433732313a2063616c6c6572206973206e6f7420746f6b656e206f776e6560008201527f72206f7220617070726f76656400000000000000000000000000000000000000602082015250565b6000611ed1602d8361178f565b9150611edc82611e75565b604082019050919050565b60006020820190508181036000830152611f0081611ec4565b9050919050565b7f4552433732313a20696e76616c696420746f6b656e2049440000000000000000600082015250565b6000611f3d60188361178f565b9150611f4882611f07565b602082019050919050565b60006020820190508181036000830152611f6c81611f30565b9050919050565b7f4552433732313a2061646472657373207a65726f206973206e6f74206120766160008201527f6c6964206f776e65720000000000000000000000000000000000000000000000602082015250565b6000611fcf60298361178f565b9150611fda82611f73565b604082019050919050565b60006020820190508181036000830152611ffe81611fc2565b9050919050565b7f4552433732313a207472616e736665722066726f6d20696e636f72726563742060008201527f6f776e6572000000000000000000000000000000000000000000000000000000602082015250565b600061206160258361178f565b915061206c82612005565b604082019050919050565b6000602082019050818103600083015261209081612054565b9050919050565b7f4552433732313a207472616e7366657220746f20746865207a65726f2061646460008201527f7265737300000000000000000000000000000000000000000000000000000000602082015250565b60006120f360248361178f565b91506120fe82612097565b604082019050919050565b60006020820190508181036000830152612122816120e6565b9050919050565b7f4552433732313a20617070726f766520746f2063616c6c657200000000000000600082015250565b600061215f60198361178f565b915061216a82612129565b602082019050919050565b6000602082019050818103600083015261218e81612152565b9050919050565b7f4552433732313a207472616e7366657220746f206e6f6e20455243373231526560008201527f63656976657220696d706c656d656e7465720000000000000000000000000000602082015250565b60006121f160328361178f565b91506121fc82612195565b604082019050919050565b60006020820190508181036000830152612220816121e4565b9050919050565b60006122328261183f565b915061223d8361183f565b9250828210156122505761224f611dfd565b5b828203905092915050565b60006122668261183f565b91506122718361183f565b9250827fffffffffffffffffffffffffffffffffffffffffffffffffffffffffffffffff038211156122a6576122a5611dfd565b5b828201905092915050565b600081519050919050565b600082825260208201905092915050565b60006122d8826122b1565b6122e281856122bc565b93506122f28185602086016117a0565b6122fb816117d3565b840191505092915050565b600060808201905061231b60008301876118d4565b61232860208301866118d4565b612335604083018561196a565b818103606083015261234781846122cd565b905095945050505050565b600081519050612361816116f5565b92915050565b60006020828403121561237d5761237c6116bf565b5b600061238b84828501612352565b91505092915050565b7f4552433732313a206d696e7420746f20746865207a65726f2061646472657373600082015250565b60006123ca60208361178f565b91506123d582612394565b602082019050919050565b600060208201905081810360008301526123f9816123bd565b9050919050565b7f4552433732313a20746f6b656e20616c7265616479206d696e74656400000000600082015250565b6000612436601c8361178f565b915061244182612400565b602082019050919050565b6000602082019050818103600083015261246581612429565b905091905056fe697066733a2f2f62616679626569673337696f6972373673376d67356f6f6265746e636f6a636d3363336878617379643472766964346a71687934676b61686567342f3f66696c656e616d653d302d5055472e6a736f6ea264697066735822122053804b4d0ccf06a2eaa46f06213ecd73ec1085a85235a4635c6093d042b55b1e64736f6c63430008080033",
  "linkReferences": {},
  "deployedLinkReferences": {}
}