{
  "_format": "hh-sol-artifact-1",
  "contractName": "RandomIpfsNft",
  "sourceName": "contracts/RandomIpfsNft.sol",
  "abi": [
    {
      "inputs": [
        {
          "internalType": "address",
          "name": "vrfCoordinatorV2",
          "type": "address"
        },
        {
          "internalType": "uint64",
          "name": "subscriptionId",
          "type": "uint64"
        },
        {
          "internalType": "bytes32",
          "name": "gasLane",
          "type": "bytes32"
        },
        {
          "internalType": "uint256",
          "name": "mintFee",
          "type": "uint256"
        },
        {
          "internalType": "uint32",
          "name": "callbackGasLimit",
          "type": "uint32"
        },
        {
          "internalType": "string[3]",
          "name": "dogTokenUris",
          "type": "string[3]"
        }
      ],
      "stateMutability": "nonpayable",
      "type": "constructor"
    },
    {
      "inputs": [
        {
          "internalType": "address",
          "name": "have",
          "type": "address"
        },
        {
          "internalType": "address",
          "name": "want",
          "type": "address"
        }
      ],
      "name": "OnlyCoordinatorCanFulfill",
      "type": "error"
    },
    {
      "inputs": [],
      "name": "RandomIpfsNft__NeedMoreETHSent",
      "type": "error"
    },
    {
      "inputs": [],
      "name": "RandomIpfsNft__RangeOutOfBounds",
      "type": "error"
    },
    {
      "inputs": [],
      "name": "RandomIpfsNft__TransferFailed",
      "type": "error"
    },
    {
      "anonymous": false,
      "inputs": [
        {
          "indexed": true,
          "internalType": "address",
          "name": "owner",
          "type": "address"
        },
        {
          "indexed": true,
          "internalType": "address",
          "name": "approved",
          "type": "address"
        },
        {
          "indexed": true,
          "internalType": "uint256",
          "name": "tokenId",
          "type": "uint256"
        }
      ],
      "name": "Approval",
      "type": "event"
    },
    {
      "anonymous": false,
      "inputs": [
        {
          "indexed": true,
          "internalType": "address",
          "name": "owner",
          "type": "address"
        },
        {
          "indexed": true,
          "internalType": "address",
          "name": "operator",
          "type": "address"
        },
        {
          "indexed": false,
          "internalType": "bool",
          "name": "approved",
          "type": "bool"
        }
      ],
      "name": "ApprovalForAll",
      "type": "event"
    },
    {
      "anonymous": false,
      "inputs": [
        {
          "indexed": false,
          "internalType": "enum RandomIpfsNft.Breed",
          "name": "dogBreed",
          "type": "uint8"
        },
        {
          "indexed": false,
          "internalType": "address",
          "name": "minter",
          "type": "address"
        }
      ],
      "name": "NFTMinted",
      "type": "event"
    },
    {
      "anonymous": false,
      "inputs": [
        {
          "indexed": true,
          "internalType": "uint256",
          "name": "requestId",
          "type": "uint256"
        },
        {
          "indexed": false,
          "internalType": "address",
          "name": "requester",
          "type": "address"
        }
      ],
      "name": "NFTRequested",
      "type": "event"
    },
    {
      "anonymous": false,
      "inputs": [
        {
          "indexed": true,
          "internalType": "address",
          "name": "previousOwner",
          "type": "address"
        },
        {
          "indexed": true,
          "internalType": "address",
          "name": "newOwner",
          "type": "address"
        }
      ],
      "name": "OwnershipTransferred",
      "type": "event"
    },
    {
      "anonymous": false,
      "inputs": [
        {
          "indexed": true,
          "internalType": "address",
          "name": "from",
          "type": "address"
        },
        {
          "indexed": true,
          "internalType": "address",
          "name": "to",
          "type": "address"
        },
        {
          "indexed": true,
          "internalType": "uint256",
          "name": "tokenId",
          "type": "uint256"
        }
      ],
      "name": "Transfer",
      "type": "event"
    },
    {
      "inputs": [
        {
          "internalType": "address",
          "name": "to",
          "type": "address"
        },
        {
          "internalType": "uint256",
          "name": "tokenId",
          "type": "uint256"
        }
      ],
      "name": "approve",
      "outputs": [],
      "stateMutability": "nonpayable",
      "type": "function"
    },
    {
      "inputs": [
        {
          "internalType": "address",
          "name": "owner",
          "type": "address"
        }
      ],
      "name": "balanceOf",
      "outputs": [
        {
          "internalType": "uint256",
          "name": "",
          "type": "uint256"
        }
      ],
      "stateMutability": "view",
      "type": "function"
    },
    {
      "inputs": [
        {
          "internalType": "uint256",
          "name": "tokenId",
          "type": "uint256"
        }
      ],
      "name": "getApproved",
      "outputs": [
        {
          "internalType": "address",
          "name": "",
          "type": "address"
        }
      ],
      "stateMutability": "view",
      "type": "function"
    },
    {
      "inputs": [
        {
          "internalType": "uint256",
          "name": "moddedRng",
          "type": "uint256"
        }
      ],
      "name": "getBreedFromModdedRng",
      "outputs": [
        {
          "internalType": "enum RandomIpfsNft.Breed",
          "name": "",
          "type": "uint8"
        }
      ],
      "stateMutability": "pure",
      "type": "function"
    },
    {
      "inputs": [],
      "name": "getChanceArray",
      "outputs": [
        {
          "internalType": "uint256[3]",
          "name": "",
          "type": "uint256[3]"
        }
      ],
      "stateMutability": "pure",
      "type": "function"
    },
    {
      "inputs": [
        {
          "internalType": "uint256",
          "name": "index",
          "type": "uint256"
        }
      ],
      "name": "getDogTokenUris",
      "outputs": [
        {
          "internalType": "string",
          "name": "",
          "type": "string"
        }
      ],
      "stateMutability": "view",
      "type": "function"
    },
    {
      "inputs": [],
      "name": "getMintFee",
      "outputs": [
        {
          "internalType": "uint256",
          "name": "",
          "type": "uint256"
        }
      ],
      "stateMutability": "view",
      "type": "function"
    },
    {
      "inputs": [],
      "name": "getTokenCounter",
      "outputs": [
        {
          "internalType": "uint256",
          "name": "",
          "type": "uint256"
        }
      ],
      "stateMutability": "view",
      "type": "function"
    },
    {
      "inputs": [
        {
          "internalType": "address",
          "name": "owner",
          "type": "address"
        },
        {
          "internalType": "address",
          "name": "operator",
          "type": "address"
        }
      ],
      "name": "isApprovedForAll",
      "outputs": [
        {
          "internalType": "bool",
          "name": "",
          "type": "bool"
        }
      ],
      "stateMutability": "view",
      "type": "function"
    },
    {
      "inputs": [],
      "name": "name",
      "outputs": [
        {
          "internalType": "string",
          "name": "",
          "type": "string"
        }
      ],
      "stateMutability": "view",
      "type": "function"
    },
    {
      "inputs": [],
      "name": "owner",
      "outputs": [
        {
          "internalType": "address",
          "name": "",
          "type": "address"
        }
      ],
      "stateMutability": "view",
      "type": "function"
    },
    {
      "inputs": [
        {
          "internalType": "uint256",
          "name": "tokenId",
          "type": "uint256"
        }
      ],
      "name": "ownerOf",
      "outputs": [
        {
          "internalType": "address",
          "name": "",
          "type": "address"
        }
      ],
      "stateMutability": "view",
      "type": "function"
    },
    {
      "inputs": [
        {
          "internalType": "uint256",
          "name": "requestId",
          "type": "uint256"
        },
        {
          "internalType": "uint256[]",
          "name": "randomWords",
          "type": "uint256[]"
        }
      ],
      "name": "rawFulfillRandomWords",
      "outputs": [],
      "stateMutability": "nonpayable",
      "type": "function"
    },
    {
      "inputs": [],
      "name": "renounceOwnership",
      "outputs": [],
      "stateMutability": "nonpayable",
      "type": "function"
    },
    {
      "inputs": [],
      "name": "requestNft",
      "outputs": [
        {
          "internalType": "uint256",
          "name": "requestId",
          "type": "uint256"
        }
      ],
      "stateMutability": "payable",
      "type": "function"
    },
    {
      "inputs": [
        {
          "internalType": "uint256",
          "name": "",
          "type": "uint256"
        }
      ],
      "name": "s_requestIdToSender",
      "outputs": [
        {
          "internalType": "address",
          "name": "",
          "type": "address"
        }
      ],
      "stateMutability": "view",
      "type": "function"
    },
    {
      "inputs": [],
      "name": "s_tokenCounter",
      "outputs": [
        {
          "internalType": "uint256",
          "name": "",
          "type": "uint256"
        }
      ],
      "stateMutability": "view",
      "type": "function"
    },
    {
      "inputs": [
        {
          "internalType": "address",
          "name": "from",
          "type": "address"
        },
        {
          "internalType": "address",
          "name": "to",
          "type": "address"
        },
        {
          "internalType": "uint256",
          "name": "tokenId",
          "type": "uint256"
        }
      ],
      "name": "safeTransferFrom",
      "outputs": [],
      "stateMutability": "nonpayable",
      "type": "function"
    },
    {
      "inputs": [
        {
          "internalType": "address",
          "name": "from",
          "type": "address"
        },
        {
          "internalType": "address",
          "name": "to",
          "type": "address"
        },
        {
          "internalType": "uint256",
          "name": "tokenId",
          "type": "uint256"
        },
        {
          "internalType": "bytes",
          "name": "data",
          "type": "bytes"
        }
      ],
      "name": "safeTransferFrom",
      "outputs": [],
      "stateMutability": "nonpayable",
      "type": "function"
    },
    {
      "inputs": [
        {
          "internalType": "address",
          "name": "operator",
          "type": "address"
        },
        {
          "internalType": "bool",
          "name": "approved",
          "type": "bool"
        }
      ],
      "name": "setApprovalForAll",
      "outputs": [],
      "stateMutability": "nonpayable",
      "type": "function"
    },
    {
      "inputs": [
        {
          "internalType": "bytes4",
          "name": "interfaceId",
          "type": "bytes4"
        }
      ],
      "name": "supportsInterface",
      "outputs": [
        {
          "internalType": "bool",
          "name": "",
          "type": "bool"
        }
      ],
      "stateMutability": "view",
      "type": "function"
    },
    {
      "inputs": [],
      "name": "symbol",
      "outputs": [
        {
          "internalType": "string",
          "name": "",
          "type": "string"
        }
      ],
      "stateMutability": "view",
      "type": "function"
    },
    {
      "inputs": [
        {
          "internalType": "uint256",
          "name": "tokenId",
          "type": "uint256"
        }
      ],
      "name": "tokenURI",
      "outputs": [
        {
          "internalType": "string",
          "name": "",
          "type": "string"
        }
      ],
      "stateMutability": "view",
      "type": "function"
    },
    {
      "inputs": [
        {
          "internalType": "address",
          "name": "from",
          "type": "address"
        },
        {
          "internalType": "address",
          "name": "to",
          "type": "address"
        },
        {
          "internalType": "uint256",
          "name": "tokenId",
          "type": "uint256"
        }
      ],
      "name": "transferFrom",
      "outputs": [],
      "stateMutability": "nonpayable",
      "type": "function"
    },
    {
      "inputs": [
        {
          "internalType": "address",
          "name": "newOwner",
          "type": "address"
        }
      ],
      "name": "transferOwnership",
      "outputs": [],
      "stateMutability": "nonpayable",
      "type": "function"
    },
    {
      "inputs": [],
      "name": "withdraw",
      "outputs": [],
      "stateMutability": "nonpayable",
      "type": "function"
    }
  ],
  "bytecode": "0x6101406040523480156200001257600080fd5b506040516200457c3803806200457c83398181016040528101906200003891906200080b565b6040518060400160405280600f81526020017f52616e646f6d2049706673204e667400000000000000000000000000000000008152506040518060400160405280600381526020017f52494e0000000000000000000000000000000000000000000000000000000000815250878073ffffffffffffffffffffffffffffffffffffffff1660808173ffffffffffffffffffffffffffffffffffffffff1660601b81525050508160009080519060200190620000f59291906200029e565b5080600190805190602001906200010e9291906200029e565b5050506200013162000125620001d060201b60201c565b620001d860201b60201c565b8573ffffffffffffffffffffffffffffffffffffffff1660a08173ffffffffffffffffffffffffffffffffffffffff1660601b815250508467ffffffffffffffff1660c08167ffffffffffffffff1660c01b815250508360e081815250508163ffffffff166101008163ffffffff1660e01b8152505080600a906003620001ba9291906200032f565b508261012081815250505050505050506200092b565b600033905090565b6000600760009054906101000a900473ffffffffffffffffffffffffffffffffffffffff16905081600760006101000a81548173ffffffffffffffffffffffffffffffffffffffff021916908373ffffffffffffffffffffffffffffffffffffffff1602179055508173ffffffffffffffffffffffffffffffffffffffff168173ffffffffffffffffffffffffffffffffffffffff167f8be0079c531659141344cd1fd0a4f28419497f9722a3daafe3b4186f6b6457e060405160405180910390a35050565b828054620002ac90620008f5565b90600052602060002090601f016020900481019282620002d057600085556200031c565b82601f10620002eb57805160ff19168380011785556200031c565b828001600101855582156200031c579182015b828111156200031b578251825591602001919060010190620002fe565b5b5090506200032b919062000396565b5090565b82805482825590600052602060002090810192821562000383579160200282015b8281111562000382578251829080519060200190620003719291906200029e565b509160200191906001019062000350565b5b509050620003929190620003b5565b5090565b5b80821115620003b157600081600090555060010162000397565b5090565b5b80821115620003d95760008181620003cf9190620003dd565b50600101620003b6565b5090565b508054620003eb90620008f5565b6000825580601f10620003ff575062000420565b601f0160209004906000526020600020908101906200041f919062000396565b5b50565b6000604051905090565b600080fd5b600080fd5b600073ffffffffffffffffffffffffffffffffffffffff82169050919050565b6000620004648262000437565b9050919050565b620004768162000457565b81146200048257600080fd5b50565b60008151905062000496816200046b565b92915050565b600067ffffffffffffffff82169050919050565b620004bb816200049c565b8114620004c757600080fd5b50565b600081519050620004db81620004b0565b92915050565b6000819050919050565b620004f681620004e1565b81146200050257600080fd5b50565b6000815190506200051681620004eb565b92915050565b6000819050919050565b62000531816200051c565b81146200053d57600080fd5b50565b600081519050620005518162000526565b92915050565b600063ffffffff82169050919050565b620005728162000557565b81146200057e57600080fd5b50565b600081519050620005928162000567565b92915050565b600080fd5b6000601f19601f8301169050919050565b7f4e487b7100000000000000000000000000000000000000000000000000000000600052604160045260246000fd5b620005e8826200059d565b810181811067ffffffffffffffff821117156200060a5762000609620005ae565b5b80604052505050565b60006200061f62000423565b90506200062d8282620005dd565b919050565b600067ffffffffffffffff82111562000650576200064f620005ae565b5b602082029050919050565b600080fd5b600080fd5b600067ffffffffffffffff821115620006835762000682620005ae565b5b6200068e826200059d565b9050602081019050919050565b60005b83811015620006bb5780820151818401526020810190506200069e565b83811115620006cb576000848401525b50505050565b6000620006e8620006e28462000665565b62000613565b90508281526020810184848401111562000707576200070662000660565b5b620007148482856200069b565b509392505050565b600082601f83011262000734576200073362000598565b5b815162000746848260208601620006d1565b91505092915050565b600062000766620007608462000632565b62000613565b905080602084028301858111156200078357620007826200065b565b5b835b81811015620007d157805167ffffffffffffffff811115620007ac57620007ab62000598565b5b808601620007bb89826200071c565b8552602085019450505060208101905062000785565b5050509392505050565b600082601f830112620007f357620007f262000598565b5b6003620008028482856200074f565b91505092915050565b60008060008060008060c087890312156200082b576200082a6200042d565b5b60006200083b89828a0162000485565b96505060206200084e89828a01620004ca565b95505060406200086189828a0162000505565b94505060606200087489828a0162000540565b93505060806200088789828a0162000581565b92505060a087015167ffffffffffffffff811115620008ab57620008aa62000432565b5b620008b989828a01620007db565b9150509295509295509295565b7f4e487b7100000000000000000000000000000000000000000000000000000000600052602260045260246000fd5b600060028204905060018216806200090e57607f821691505b60208210811415620009255762000924620008c6565b5b50919050565b60805160601c60a05160601c60c05160c01c60e0516101005160e01c61012051613be76200099560003960008181610d4b0152610f440152600061101e01526000610fda01526000610ffb01526000610f9e01526000818161091d01526109710152613be76000f3fe6080604052600436106101815760003560e01c806370a08231116100d1578063a36f573b1161008a578063b88d4fde11610064578063b88d4fde14610577578063c87b56dd146105a0578063e985e9c5146105dd578063f2fde38b1461061a57610181565b8063a36f573b146104df578063a51cccf31461051c578063aa1524911461055957610181565b806370a08231146103e1578063715018a61461041e5780637a5caab3146104355780638da5cb5b1461046057806395d89b411461048b578063a22cb465146104b657610181565b806323b872dd1161013e57806342842e0e1161011857806342842e0e146103255780635dacf5f41461034e5780636352211e146103795780636e02007d146103b657610181565b806323b872dd146102a85780633af25975146102d15780633ccfd60b1461030e57610181565b806301ffc9a71461018657806306fdde03146101c3578063081812fc146101ee578063095ea7b31461022b5780630b21a83b146102545780631fe543e31461027f575b600080fd5b34801561019257600080fd5b506101ad60048036038101906101a891906127c6565b610643565b6040516101ba919061280e565b60405180910390f35b3480156101cf57600080fd5b506101d8610725565b6040516101e591906128c2565b60405180910390f35b3480156101fa57600080fd5b506102156004803603810190610210919061291a565b6107b7565b6040516102229190612988565b60405180910390f35b34801561023757600080fd5b50610252600480360381019061024d91906129cf565b6107fd565b005b34801561026057600080fd5b50610269610915565b6040516102769190612a1e565b60405180910390f35b34801561028b57600080fd5b506102a660048036038101906102a19190612b81565b61091b565b005b3480156102b457600080fd5b506102cf60048036038101906102ca9190612bdd565b6109db565b005b3480156102dd57600080fd5b506102f860048036038101906102f3919061291a565b610a3b565b60405161030591906128c2565b60405180910390f35b34801561031a57600080fd5b50610323610aeb565b005b34801561033157600080fd5b5061034c60048036038101906103479190612bdd565b610b9f565b005b34801561035a57600080fd5b50610363610bbf565b6040516103709190612cdb565b60405180910390f35b34801561038557600080fd5b506103a0600480360381019061039b919061291a565b610bea565b6040516103ad9190612988565b60405180910390f35b3480156103c257600080fd5b506103cb610c71565b6040516103d89190612a1e565b60405180910390f35b3480156103ed57600080fd5b5061040860048036038101906104039190612cf6565b610c7b565b6040516104159190612a1e565b60405180910390f35b34801561042a57600080fd5b50610433610d33565b005b34801561044157600080fd5b5061044a610d47565b6040516104579190612a1e565b60405180910390f35b34801561046c57600080fd5b50610475610d6f565b6040516104829190612988565b60405180910390f35b34801561049757600080fd5b506104a0610d99565b6040516104ad91906128c2565b60405180910390f35b3480156104c257600080fd5b506104dd60048036038101906104d89190612d4f565b610e2b565b005b3480156104eb57600080fd5b506105066004803603810190610501919061291a565b610e41565b6040516105139190612988565b60405180910390f35b34801561052857600080fd5b50610543600480360381019061053e919061291a565b610e74565b6040516105509190612e06565b60405180910390f35b610561610f40565b60405161056e9190612a1e565b60405180910390f35b34801561058357600080fd5b5061059e60048036038101906105999190612ed6565b611140565b005b3480156105ac57600080fd5b506105c760048036038101906105c2919061291a565b6111a2565b6040516105d491906128c2565b60405180910390f35b3480156105e957600080fd5b5061060460048036038101906105ff9190612f59565b6112b5565b604051610611919061280e565b60405180910390f35b34801561062657600080fd5b50610641600480360381019061063c9190612cf6565b611349565b005b60007f80ac58cd000000000000000000000000000000000000000000000000000000007bffffffffffffffffffffffffffffffffffffffffffffffffffffffff1916827bffffffffffffffffffffffffffffffffffffffffffffffffffffffff1916148061070e57507f5b5e139f000000000000000000000000000000000000000000000000000000007bffffffffffffffffffffffffffffffffffffffffffffffffffffffff1916827bffffffffffffffffffffffffffffffffffffffffffffffffffffffff1916145b8061071e575061071d826113cd565b5b9050919050565b60606000805461073490612fc8565b80601f016020809104026020016040519081016040528092919081815260200182805461076090612fc8565b80156107ad5780601f10610782576101008083540402835291602001916107ad565b820191906000526020600020905b81548152906001019060200180831161079057829003601f168201915b5050505050905090565b60006107c282611437565b6004600083815260200190815260200160002060009054906101000a900473ffffffffffffffffffffffffffffffffffffffff169050919050565b600061080882610bea565b90508073ffffffffffffffffffffffffffffffffffffffff168373ffffffffffffffffffffffffffffffffffffffff161415610879576040517f08c379a00000000000000000000000000000000000000000000000000000000081526004016108709061306c565b60405180910390fd5b8073ffffffffffffffffffffffffffffffffffffffff16610898611482565b73ffffffffffffffffffffffffffffffffffffffff1614806108c757506108c6816108c1611482565b6112b5565b5b610906576040517f08c379a00000000000000000000000000000000000000000000000000000000081526004016108fd906130fe565b60405180910390fd5b610910838361148a565b505050565b60095481565b7f000000000000000000000000000000000000000000000000000000000000000073ffffffffffffffffffffffffffffffffffffffff163373ffffffffffffffffffffffffffffffffffffffff16146109cd57337f00000000000000000000000000000000000000000000000000000000000000006040517f1cf993f40000000000000000000000000000000000000000000000000000000081526004016109c492919061311e565b60405180910390fd5b6109d78282611543565b5050565b6109ec6109e6611482565b826116e0565b610a2b576040517f08c379a0000000000000000000000000000000000000000000000000000000008152600401610a22906131b9565b60405180910390fd5b610a36838383611775565b505050565b6060600a8281548110610a5157610a506131d9565b5b906000526020600020018054610a6690612fc8565b80601f0160208091040260200160405190810160405280929190818152602001828054610a9290612fc8565b8015610adf5780601f10610ab457610100808354040283529160200191610adf565b820191906000526020600020905b815481529060010190602001808311610ac257829003601f168201915b50505050509050919050565b610af3611a6f565b600047905060003373ffffffffffffffffffffffffffffffffffffffff1682604051610b1e90613239565b60006040518083038185875af1925050503d8060008114610b5b576040519150601f19603f3d011682016040523d82523d6000602084013e610b60565b606091505b5050905080610b9b576040517fca7e25b700000000000000000000000000000000000000000000000000000000815260040160405180910390fd5b5050565b610bba83838360405180602001604052806000815250611140565b505050565b610bc7612695565b6040518060600160405280600a8152602001601e81526020016064815250905090565b600080610bf683611aed565b9050600073ffffffffffffffffffffffffffffffffffffffff168173ffffffffffffffffffffffffffffffffffffffff161415610c68576040517f08c379a0000000000000000000000000000000000000000000000000000000008152600401610c5f9061329a565b60405180910390fd5b80915050919050565b6000600954905090565b60008073ffffffffffffffffffffffffffffffffffffffff168273ffffffffffffffffffffffffffffffffffffffff161415610cec576040517f08c379a0000000000000000000000000000000000000000000000000000000008152600401610ce39061332c565b60405180910390fd5b600360008373ffffffffffffffffffffffffffffffffffffffff1673ffffffffffffffffffffffffffffffffffffffff168152602001908152602001600020549050919050565b610d3b611a6f565b610d456000611b2a565b565b60007f0000000000000000000000000000000000000000000000000000000000000000905090565b6000600760009054906101000a900473ffffffffffffffffffffffffffffffffffffffff16905090565b606060018054610da890612fc8565b80601f0160208091040260200160405190810160405280929190818152602001828054610dd490612fc8565b8015610e215780601f10610df657610100808354040283529160200191610e21565b820191906000526020600020905b815481529060010190602001808311610e0457829003601f168201915b5050505050905090565b610e3d610e36611482565b8383611bf0565b5050565b60086020528060005260406000206000915054906101000a900473ffffffffffffffffffffffffffffffffffffffff1681565b600080600090506000610e85610bbf565b905060005b6003811015610f0857828510158015610eb95750818160038110610eb157610eb06131d9565b5b602002015185105b15610edb57806002811115610ed157610ed0612d8f565b5b9350505050610f3b565b818160038110610eee57610eed6131d9565b5b602002015192508080610f009061337b565b915050610e8a565b506040517f12806c9d00000000000000000000000000000000000000000000000000000000815260040160405180910390fd5b919050565b60007f0000000000000000000000000000000000000000000000000000000000000000341015610f9c576040517fb90f491000000000000000000000000000000000000000000000000000000000815260040160405180910390fd5b7f000000000000000000000000000000000000000000000000000000000000000073ffffffffffffffffffffffffffffffffffffffff16635d3b1d307f00000000000000000000000000000000000000000000000000000000000000007f000000000000000000000000000000000000000000000000000000000000000060037f000000000000000000000000000000000000000000000000000000000000000060016040518663ffffffff1660e01b815260040161105f95949392919061343c565b602060405180830381600087803b15801561107957600080fd5b505af115801561108d573d6000803e3d6000fd5b505050506040513d601f19601f820116820180604052508101906110b191906134a4565b9050336008600083815260200190815260200160002060006101000a81548173ffffffffffffffffffffffffffffffffffffffff021916908373ffffffffffffffffffffffffffffffffffffffff160217905550807f4e1c2f1eae56e29ec039a2b882eec626e6c420ed5a5b93a203c8b8b695e911b1336040516111359190612988565b60405180910390a290565b61115161114b611482565b836116e0565b611190576040517f08c379a0000000000000000000000000000000000000000000000000000000008152600401611187906131b9565b60405180910390fd5b61119c84848484611d5d565b50505050565b60606111ad82611437565b60006006600084815260200190815260200160002080546111cd90612fc8565b80601f01602080910402602001604051908101604052809291908181526020018280546111f990612fc8565b80156112465780601f1061121b57610100808354040283529160200191611246565b820191906000526020600020905b81548152906001019060200180831161122957829003601f168201915b505050505090506000611257611db9565b905060008151141561126d5781925050506112b0565b6000825111156112a257808260405160200161128a92919061350d565b604051602081830303815290604052925050506112b0565b6112ab84611dd0565b925050505b919050565b6000600560008473ffffffffffffffffffffffffffffffffffffffff1673ffffffffffffffffffffffffffffffffffffffff16815260200190815260200160002060008373ffffffffffffffffffffffffffffffffffffffff1673ffffffffffffffffffffffffffffffffffffffff16815260200190815260200160002060009054906101000a900460ff16905092915050565b611351611a6f565b600073ffffffffffffffffffffffffffffffffffffffff168173ffffffffffffffffffffffffffffffffffffffff1614156113c1576040517f08c379a00000000000000000000000000000000000000000000000000000000081526004016113b8906135a3565b60405180910390fd5b6113ca81611b2a565b50565b60007f01ffc9a7000000000000000000000000000000000000000000000000000000007bffffffffffffffffffffffffffffffffffffffffffffffffffffffff1916827bffffffffffffffffffffffffffffffffffffffffffffffffffffffff1916149050919050565b61144081611e38565b61147f576040517f08c379a00000000000000000000000000000000000000000000000000000000081526004016114769061329a565b60405180910390fd5b50565b600033905090565b816004600083815260200190815260200160002060006101000a81548173ffffffffffffffffffffffffffffffffffffffff021916908373ffffffffffffffffffffffffffffffffffffffff160217905550808273ffffffffffffffffffffffffffffffffffffffff166114fd83610bea565b73ffffffffffffffffffffffffffffffffffffffff167f8c5be1e5ebec7d5bd14f71427d1e84f3dd0314c0f7b2291e5b200ac8c7c3b92560405160405180910390a45050565b60006008600084815260200190815260200160002060009054906101000a900473ffffffffffffffffffffffffffffffffffffffff16905060006009549050600960008154809291906115959061337b565b919050555060006064846000815181106115b2576115b16131d9565b5b60200260200101516115c491906135f2565b905060006115d182610e74565b90506115dd8484611e79565b61169f83600a8360028111156115f6576115f5612d8f565b5b81548110611607576116066131d9565b5b90600052602060002001805461161c90612fc8565b80601f016020809104026020016040519081016040528092919081815260200182805461164890612fc8565b80156116955780601f1061166a57610100808354040283529160200191611695565b820191906000526020600020905b81548152906001019060200180831161167857829003601f168201915b5050505050611e97565b7fab79897476febbd649710b1bd1dc3e93a316d3dee65f65b022ab89a4b7e206b581856040516116d0929190613623565b60405180910390a1505050505050565b6000806116ec83610bea565b90508073ffffffffffffffffffffffffffffffffffffffff168473ffffffffffffffffffffffffffffffffffffffff16148061172e575061172d81856112b5565b5b8061176c57508373ffffffffffffffffffffffffffffffffffffffff16611754846107b7565b73ffffffffffffffffffffffffffffffffffffffff16145b91505092915050565b8273ffffffffffffffffffffffffffffffffffffffff1661179582610bea565b73ffffffffffffffffffffffffffffffffffffffff16146117eb576040517f08c379a00000000000000000000000000000000000000000000000000000000081526004016117e2906136be565b60405180910390fd5b600073ffffffffffffffffffffffffffffffffffffffff168273ffffffffffffffffffffffffffffffffffffffff16141561185b576040517f08c379a000000000000000000000000000000000000000000000000000000000815260040161185290613750565b60405180910390fd5b6118688383836001611f0b565b8273ffffffffffffffffffffffffffffffffffffffff1661188882610bea565b73ffffffffffffffffffffffffffffffffffffffff16146118de576040517f08c379a00000000000000000000000000000000000000000000000000000000081526004016118d5906136be565b60405180910390fd5b6004600082815260200190815260200160002060006101000a81549073ffffffffffffffffffffffffffffffffffffffff02191690556001600360008573ffffffffffffffffffffffffffffffffffffffff1673ffffffffffffffffffffffffffffffffffffffff168152602001908152602001600020600082825403925050819055506001600360008473ffffffffffffffffffffffffffffffffffffffff1673ffffffffffffffffffffffffffffffffffffffff16815260200190815260200160002060008282540192505081905550816002600083815260200190815260200160002060006101000a81548173ffffffffffffffffffffffffffffffffffffffff021916908373ffffffffffffffffffffffffffffffffffffffff160217905550808273ffffffffffffffffffffffffffffffffffffffff168473ffffffffffffffffffffffffffffffffffffffff167fddf252ad1be2c89b69c2b068fc378daa952ba7f163c4a11628f55a4df523b3ef60405160405180910390a4611a6a8383836001612031565b505050565b611a77611482565b73ffffffffffffffffffffffffffffffffffffffff16611a95610d6f565b73ffffffffffffffffffffffffffffffffffffffff1614611aeb576040517f08c379a0000000000000000000000000000000000000000000000000000000008152600401611ae2906137bc565b60405180910390fd5b565b60006002600083815260200190815260200160002060009054906101000a900473ffffffffffffffffffffffffffffffffffffffff169050919050565b6000600760009054906101000a900473ffffffffffffffffffffffffffffffffffffffff16905081600760006101000a81548173ffffffffffffffffffffffffffffffffffffffff021916908373ffffffffffffffffffffffffffffffffffffffff1602179055508173ffffffffffffffffffffffffffffffffffffffff168173ffffffffffffffffffffffffffffffffffffffff167f8be0079c531659141344cd1fd0a4f28419497f9722a3daafe3b4186f6b6457e060405160405180910390a35050565b8173ffffffffffffffffffffffffffffffffffffffff168373ffffffffffffffffffffffffffffffffffffffff161415611c5f576040517f08c379a0000000000000000000000000000000000000000000000000000000008152600401611c5690613828565b60405180910390fd5b80600560008573ffffffffffffffffffffffffffffffffffffffff1673ffffffffffffffffffffffffffffffffffffffff16815260200190815260200160002060008473ffffffffffffffffffffffffffffffffffffffff1673ffffffffffffffffffffffffffffffffffffffff16815260200190815260200160002060006101000a81548160ff0219169083151502179055508173ffffffffffffffffffffffffffffffffffffffff168373ffffffffffffffffffffffffffffffffffffffff167f17307eab39ab6107e8899845ad3d59bd9653f200f220920489ca2b5937696c3183604051611d50919061280e565b60405180910390a3505050565b611d68848484611775565b611d7484848484612037565b611db3576040517f08c379a0000000000000000000000000000000000000000000000000000000008152600401611daa906138ba565b60405180910390fd5b50505050565b606060405180602001604052806000815250905090565b6060611ddb82611437565b6000611de5611db9565b90506000815111611e055760405180602001604052806000815250611e30565b80611e0f846121ce565b604051602001611e2092919061350d565b6040516020818303038152906040525b915050919050565b60008073ffffffffffffffffffffffffffffffffffffffff16611e5a83611aed565b73ffffffffffffffffffffffffffffffffffffffff1614159050919050565b611e938282604051806020016040528060008152506122a6565b5050565b611ea082611e38565b611edf576040517f08c379a0000000000000000000000000000000000000000000000000000000008152600401611ed69061394c565b60405180910390fd5b80600660008481526020019081526020016000209080519060200190611f069291906126b7565b505050565b600181111561202b57600073ffffffffffffffffffffffffffffffffffffffff168473ffffffffffffffffffffffffffffffffffffffff1614611f9f5780600360008673ffffffffffffffffffffffffffffffffffffffff1673ffffffffffffffffffffffffffffffffffffffff1681526020019081526020016000206000828254611f97919061396c565b925050819055505b600073ffffffffffffffffffffffffffffffffffffffff168373ffffffffffffffffffffffffffffffffffffffff161461202a5780600360008573ffffffffffffffffffffffffffffffffffffffff1673ffffffffffffffffffffffffffffffffffffffff168152602001908152602001600020600082825461202291906139a0565b925050819055505b5b50505050565b50505050565b60006120588473ffffffffffffffffffffffffffffffffffffffff16612301565b156121c1578373ffffffffffffffffffffffffffffffffffffffff1663150b7a02612081611482565b8786866040518563ffffffff1660e01b81526004016120a39493929190613a4b565b602060405180830381600087803b1580156120bd57600080fd5b505af19250505080156120ee57506040513d601f19601f820116820180604052508101906120eb9190613aac565b60015b612171573d806000811461211e576040519150601f19603f3d011682016040523d82523d6000602084013e612123565b606091505b50600081511415612169576040517f08c379a0000000000000000000000000000000000000000000000000000000008152600401612160906138ba565b60405180910390fd5b805181602001fd5b63150b7a0260e01b7bffffffffffffffffffffffffffffffffffffffffffffffffffffffff1916817bffffffffffffffffffffffffffffffffffffffffffffffffffffffff1916149150506121c6565b600190505b949350505050565b6060600060016121dd84612324565b01905060008167ffffffffffffffff8111156121fc576121fb612a3e565b5b6040519080825280601f01601f19166020018201604052801561222e5781602001600182028036833780820191505090505b509050600082602001820190505b60011561229b578080600190039150507f3031323334353637383961626364656600000000000000000000000000000000600a86061a8153600a8581612285576122846135c3565b5b04945060008514156122965761229b565b61223c565b819350505050919050565b6122b08383612477565b6122bd6000848484612037565b6122fc576040517f08c379a00000000000000000000000000000000000000000000000000000000081526004016122f3906138ba565b60405180910390fd5b505050565b6000808273ffffffffffffffffffffffffffffffffffffffff163b119050919050565b600080600090507a184f03e93ff9f4daa797ed6e38ed64bf6a1f0100000000000000008310612382577a184f03e93ff9f4daa797ed6e38ed64bf6a1f0100000000000000008381612378576123776135c3565b5b0492506040810190505b6d04ee2d6d415b85acef810000000083106123bf576d04ee2d6d415b85acef810000000083816123b5576123b46135c3565b5b0492506020810190505b662386f26fc1000083106123ee57662386f26fc1000083816123e4576123e36135c3565b5b0492506010810190505b6305f5e1008310612417576305f5e100838161240d5761240c6135c3565b5b0492506008810190505b612710831061243c576127108381612432576124316135c3565b5b0492506004810190505b6064831061245f5760648381612455576124546135c3565b5b0492506002810190505b600a831061246e576001810190505b80915050919050565b600073ffffffffffffffffffffffffffffffffffffffff168273ffffffffffffffffffffffffffffffffffffffff1614156124e7576040517f08c379a00000000000000000000000000000000000000000000000000000000081526004016124de90613b25565b60405180910390fd5b6124f081611e38565b15612530576040517f08c379a000000000000000000000000000000000000000000000000000000000815260040161252790613b91565b60405180910390fd5b61253e600083836001611f0b565b61254781611e38565b15612587576040517f08c379a000000000000000000000000000000000000000000000000000000000815260040161257e90613b91565b60405180910390fd5b6001600360008473ffffffffffffffffffffffffffffffffffffffff1673ffffffffffffffffffffffffffffffffffffffff16815260200190815260200160002060008282540192505081905550816002600083815260200190815260200160002060006101000a81548173ffffffffffffffffffffffffffffffffffffffff021916908373ffffffffffffffffffffffffffffffffffffffff160217905550808273ffffffffffffffffffffffffffffffffffffffff16600073ffffffffffffffffffffffffffffffffffffffff167fddf252ad1be2c89b69c2b068fc378daa952ba7f163c4a11628f55a4df523b3ef60405160405180910390a4612691600083836001612031565b5050565b6040518060600160405280600390602082028036833780820191505090505090565b8280546126c390612fc8565b90600052602060002090601f0160209004810192826126e5576000855561272c565b82601f106126fe57805160ff191683800117855561272c565b8280016001018555821561272c579182015b8281111561272b578251825591602001919060010190612710565b5b509050612739919061273d565b5090565b5b8082111561275657600081600090555060010161273e565b5090565b6000604051905090565b600080fd5b600080fd5b60007fffffffff0000000000000000000000000000000000000000000000000000000082169050919050565b6127a38161276e565b81146127ae57600080fd5b50565b6000813590506127c08161279a565b92915050565b6000602082840312156127dc576127db612764565b5b60006127ea848285016127b1565b91505092915050565b60008115159050919050565b612808816127f3565b82525050565b600060208201905061282360008301846127ff565b92915050565b600081519050919050565b600082825260208201905092915050565b60005b83811015612863578082015181840152602081019050612848565b83811115612872576000848401525b50505050565b6000601f19601f8301169050919050565b600061289482612829565b61289e8185612834565b93506128ae818560208601612845565b6128b781612878565b840191505092915050565b600060208201905081810360008301526128dc8184612889565b905092915050565b6000819050919050565b6128f7816128e4565b811461290257600080fd5b50565b600081359050612914816128ee565b92915050565b6000602082840312156129305761292f612764565b5b600061293e84828501612905565b91505092915050565b600073ffffffffffffffffffffffffffffffffffffffff82169050919050565b600061297282612947565b9050919050565b61298281612967565b82525050565b600060208201905061299d6000830184612979565b92915050565b6129ac81612967565b81146129b757600080fd5b50565b6000813590506129c9816129a3565b92915050565b600080604083850312156129e6576129e5612764565b5b60006129f4858286016129ba565b9250506020612a0585828601612905565b9150509250929050565b612a18816128e4565b82525050565b6000602082019050612a336000830184612a0f565b92915050565b600080fd5b7f4e487b7100000000000000000000000000000000000000000000000000000000600052604160045260246000fd5b612a7682612878565b810181811067ffffffffffffffff82111715612a9557612a94612a3e565b5b80604052505050565b6000612aa861275a565b9050612ab48282612a6d565b919050565b600067ffffffffffffffff821115612ad457612ad3612a3e565b5b602082029050602081019050919050565b600080fd5b6000612afd612af884612ab9565b612a9e565b90508083825260208201905060208402830185811115612b2057612b1f612ae5565b5b835b81811015612b495780612b358882612905565b845260208401935050602081019050612b22565b5050509392505050565b600082601f830112612b6857612b67612a39565b5b8135612b78848260208601612aea565b91505092915050565b60008060408385031215612b9857612b97612764565b5b6000612ba685828601612905565b925050602083013567ffffffffffffffff811115612bc757612bc6612769565b5b612bd385828601612b53565b9150509250929050565b600080600060608486031215612bf657612bf5612764565b5b6000612c04868287016129ba565b9350506020612c15868287016129ba565b9250506040612c2686828701612905565b9150509250925092565b600060039050919050565b600081905092915050565b6000819050919050565b612c59816128e4565b82525050565b6000612c6b8383612c50565b60208301905092915050565b6000602082019050919050565b612c8d81612c30565b612c978184612c3b565b9250612ca282612c46565b8060005b83811015612cd3578151612cba8782612c5f565b9650612cc583612c77565b925050600181019050612ca6565b505050505050565b6000606082019050612cf06000830184612c84565b92915050565b600060208284031215612d0c57612d0b612764565b5b6000612d1a848285016129ba565b91505092915050565b612d2c816127f3565b8114612d3757600080fd5b50565b600081359050612d4981612d23565b92915050565b60008060408385031215612d6657612d65612764565b5b6000612d74858286016129ba565b9250506020612d8585828601612d3a565b9150509250929050565b7f4e487b7100000000000000000000000000000000000000000000000000000000600052602160045260246000fd5b60038110612dcf57612dce612d8f565b5b50565b6000819050612de082612dbe565b919050565b6000612df082612dd2565b9050919050565b612e0081612de5565b82525050565b6000602082019050612e1b6000830184612df7565b92915050565b600080fd5b600067ffffffffffffffff821115612e4157612e40612a3e565b5b612e4a82612878565b9050602081019050919050565b82818337600083830152505050565b6000612e79612e7484612e26565b612a9e565b905082815260208101848484011115612e9557612e94612e21565b5b612ea0848285612e57565b509392505050565b600082601f830112612ebd57612ebc612a39565b5b8135612ecd848260208601612e66565b91505092915050565b60008060008060808587031215612ef057612eef612764565b5b6000612efe878288016129ba565b9450506020612f0f878288016129ba565b9350506040612f2087828801612905565b925050606085013567ffffffffffffffff811115612f4157612f40612769565b5b612f4d87828801612ea8565b91505092959194509250565b60008060408385031215612f7057612f6f612764565b5b6000612f7e858286016129ba565b9250506020612f8f858286016129ba565b9150509250929050565b7f4e487b7100000000000000000000000000000000000000000000000000000000600052602260045260246000fd5b60006002820490506001821680612fe057607f821691505b60208210811415612ff457612ff3612f99565b5b50919050565b7f4552433732313a20617070726f76616c20746f2063757272656e74206f776e6560008201527f7200000000000000000000000000000000000000000000000000000000000000602082015250565b6000613056602183612834565b915061306182612ffa565b604082019050919050565b6000602082019050818103600083015261308581613049565b9050919050565b7f4552433732313a20617070726f76652063616c6c6572206973206e6f7420746f60008201527f6b656e206f776e6572206f7220617070726f76656420666f7220616c6c000000602082015250565b60006130e8603d83612834565b91506130f38261308c565b604082019050919050565b60006020820190508181036000830152613117816130db565b9050919050565b60006040820190506131336000830185612979565b6131406020830184612979565b9392505050565b7f4552433732313a2063616c6c6572206973206e6f7420746f6b656e206f776e6560008201527f72206f7220617070726f76656400000000000000000000000000000000000000602082015250565b60006131a3602d83612834565b91506131ae82613147565b604082019050919050565b600060208201905081810360008301526131d281613196565b9050919050565b7f4e487b7100000000000000000000000000000000000000000000000000000000600052603260045260246000fd5b600081905092915050565b50565b6000613223600083613208565b915061322e82613213565b600082019050919050565b600061324482613216565b9150819050919050565b7f4552433732313a20696e76616c696420746f6b656e2049440000000000000000600082015250565b6000613284601883612834565b915061328f8261324e565b602082019050919050565b600060208201905081810360008301526132b381613277565b9050919050565b7f4552433732313a2061646472657373207a65726f206973206e6f74206120766160008201527f6c6964206f776e65720000000000000000000000000000000000000000000000602082015250565b6000613316602983612834565b9150613321826132ba565b604082019050919050565b6000602082019050818103600083015261334581613309565b9050919050565b7f4e487b7100000000000000000000000000000000000000000000000000000000600052601160045260246000fd5b6000613386826128e4565b91507fffffffffffffffffffffffffffffffffffffffffffffffffffffffffffffffff8214156133b9576133b861334c565b5b600182019050919050565b6000819050919050565b6133d7816133c4565b82525050565b600067ffffffffffffffff82169050919050565b6133fa816133dd565b82525050565b600061ffff82169050919050565b61341781613400565b82525050565b600063ffffffff82169050919050565b6134368161341d565b82525050565b600060a08201905061345160008301886133ce565b61345e60208301876133f1565b61346b604083018661340e565b613478606083018561342d565b613485608083018461342d565b9695505050505050565b60008151905061349e816128ee565b92915050565b6000602082840312156134ba576134b9612764565b5b60006134c88482850161348f565b91505092915050565b600081905092915050565b60006134e782612829565b6134f181856134d1565b9350613501818560208601612845565b80840191505092915050565b600061351982856134dc565b915061352582846134dc565b91508190509392505050565b7f4f776e61626c653a206e6577206f776e657220697320746865207a65726f206160008201527f6464726573730000000000000000000000000000000000000000000000000000602082015250565b600061358d602683612834565b915061359882613531565b604082019050919050565b600060208201905081810360008301526135bc81613580565b9050919050565b7f4e487b7100000000000000000000000000000000000000000000000000000000600052601260045260246000fd5b60006135fd826128e4565b9150613608836128e4565b925082613618576136176135c3565b5b828206905092915050565b60006040820190506136386000830185612df7565b6136456020830184612979565b9392505050565b7f4552433732313a207472616e736665722066726f6d20696e636f72726563742060008201527f6f776e6572000000000000000000000000000000000000000000000000000000602082015250565b60006136a8602583612834565b91506136b38261364c565b604082019050919050565b600060208201905081810360008301526136d78161369b565b9050919050565b7f4552433732313a207472616e7366657220746f20746865207a65726f2061646460008201527f7265737300000000000000000000000000000000000000000000000000000000602082015250565b600061373a602483612834565b9150613745826136de565b604082019050919050565b600060208201905081810360008301526137698161372d565b9050919050565b7f4f776e61626c653a2063616c6c6572206973206e6f7420746865206f776e6572600082015250565b60006137a6602083612834565b91506137b182613770565b602082019050919050565b600060208201905081810360008301526137d581613799565b9050919050565b7f4552433732313a20617070726f766520746f2063616c6c657200000000000000600082015250565b6000613812601983612834565b915061381d826137dc565b602082019050919050565b6000602082019050818103600083015261384181613805565b9050919050565b7f4552433732313a207472616e7366657220746f206e6f6e20455243373231526560008201527f63656976657220696d706c656d656e7465720000000000000000000000000000602082015250565b60006138a4603283612834565b91506138af82613848565b604082019050919050565b600060208201905081810360008301526138d381613897565b9050919050565b7f45524337323155524953746f726167653a2055524920736574206f66206e6f6e60008201527f6578697374656e7420746f6b656e000000000000000000000000000000000000602082015250565b6000613936602e83612834565b9150613941826138da565b604082019050919050565b6000602082019050818103600083015261396581613929565b9050919050565b6000613977826128e4565b9150613982836128e4565b9250828210156139955761399461334c565b5b828203905092915050565b60006139ab826128e4565b91506139b6836128e4565b9250827fffffffffffffffffffffffffffffffffffffffffffffffffffffffffffffffff038211156139eb576139ea61334c565b5b828201905092915050565b600081519050919050565b600082825260208201905092915050565b6000613a1d826139f6565b613a278185613a01565b9350613a37818560208601612845565b613a4081612878565b840191505092915050565b6000608082019050613a606000830187612979565b613a6d6020830186612979565b613a7a6040830185612a0f565b8181036060830152613a8c8184613a12565b905095945050505050565b600081519050613aa68161279a565b92915050565b600060208284031215613ac257613ac1612764565b5b6000613ad084828501613a97565b91505092915050565b7f4552433732313a206d696e7420746f20746865207a65726f2061646472657373600082015250565b6000613b0f602083612834565b9150613b1a82613ad9565b602082019050919050565b60006020820190508181036000830152613b3e81613b02565b9050919050565b7f4552433732313a20746f6b656e20616c7265616479206d696e74656400000000600082015250565b6000613b7b601c83612834565b9150613b8682613b45565b602082019050919050565b60006020820190508181036000830152613baa81613b6e565b905091905056fea2646970667358221220306572639961cb4c40f005410e934eab7fd68c8c8cad5410590a0277629f4d7a64736f6c63430008080033",
  "linkReferences": {},
  "deployedLinkReferences": {}
}